:100000000C9454000C9473000C9473000C947300C3
:100010000C9473000C9473000C9473000C94730094
:100020000C9473000C9473000C9473000C94730084
:100030000C9473000C94A1010C9473000C94730045
:100040000C9473000C9473000C9473000C94730064
:100050000C9473000C9473000C9473000C94730054
:100060000C9473000C9473000C9473000C94730044
:100070000C9473000C9473000C9473000C94730034
:100080000C9473000C9473000C947300D803DB037E
:10009000E90322043004420454049E047D048204D3
:1000A000880491049504990411241FBECFEFD0E475
:1000B000DEBFCDBF11E0A0E0B1E0E2E5FEE000E090
:1000C0000BBF02C007900D92A631B107D9F721E00E
:1000D000A6E1B1E001C01D92A236B207E1F70E948D
:1000E00004050C9427070C940000CF93DF9300D0F5
:1000F0001F92CDB7DEB789837B836A8389818A307B
:1001000031F48A819B81BC018DE00E94750080ECF6
:1001100090E0FC018081882F90E080729927892BE4
:10012000B1F386EC90E02981FC01208380E090E02F
:100130000F900F900F90DF91CF910895CF93DF93A1
:10014000CDB7DEB781E890E02BE0FC01208388E8A2
:1001500090E02DE730E0FC01318320838FE690E0D2
:1001600022E0FC01208384E890E0FC0111821082EF
:1001700080910E0190910F01A0911001B091110199
:100180008093170190931801A0931901B0931A015D
:100190008FE590E02FE530E0F90120812068FC0137
:1001A00020830000DF91CF910895CF93DF93CDB7E7
:1001B000DEB781E890E0FC0110820000DF91CF9172
:1001C00008950F931F93CF93DF931F92CDB7DEB7A0
:1001D0001982A7C08981282F30E0C901880F991F93
:1001E000820F931F880F991F880F991F8C5D9E4F58
:1001F000FC0120813181428153818981682F70E027
:10020000CB01880F991F860F971F880F991F880FA2
:10021000991F805E9E4FFC0180819181A281B381F4
:10022000281739074A075B0708F449C08981082F56
:1002300010E08981282F30E0C901880F991F820FB3
:10024000931F880F991F880F991F885D9E4FFC018F
:10025000408151818981282F30E0C901880F991F81
:10026000820F931F880F991F880F991F825E9E4FE0
:10027000FC0180819181FA0109959C01C801880FD8
:10028000991F800F911F880F991F880F991F825EF9
:100290009E4FFC01318320838981282F30E0C901E2
:1002A000880F991F820F931F880F991F880F991F1E
:1002B0008C5D9E4FFC011082118212821382898113
:1002C000682F70E08981282F30E0C901880F991FBD
:1002D000820F931F880F991F880F991F8C5D9E4F67
:1002E000FC0120813181428153818AE090E0CC0180
:1002F000A0E0B0E0280F391F4A1F5B1FCB01880F19
:10030000991F860F971F880F991F880F991F8C5D63
:100310009E4FFC01208331834283538389818F5F09
:1003200089838981282F30E085E090E028173907FC
:1003300008F450CF00000F90DF91CF911F910F91E3
:1003400008951F920F9200905F000F921124009069
:100350005B000F922F933F934F935F936F937F9325
:100360008F939F93AF93BF93EF93FF93CF93DF93BD
:10037000CDB7DEB78091170190911801A0911901B6
:10038000B0911A010197A109B109809317019093C7
:100390001801A0931901B0931A018091170190914F
:1003A0001801A0911901B0911A01892B8A2B8B2B6E
:1003B00091F40E94E10080910E0190910F01A091B3
:1003C0001001B09111018093170190931801A0932F
:1003D0001901B0931A010000DF91CF91FF91EF91C5
:1003E000BF91AF919F918F917F916F915F914F914D
:1003F0003F912F910F9000925B000F9000925F0051
:100400000F901F901895CF93DF9300D000D0CDB7F9
:10041000DEB769837A838B839C8389819A81AB81E0
:10042000BC8180930E0190930F01A0931001B093B3
:10043000110180910E0190910F01A0911001B091D6
:1004400011018093170190931801A0931901B093A3
:100450001A0100000F900F900F900F90DF91CF9135
:100460000895CF93DF9300D0CDB7DEB79A83898309
:1004700089819A81009719F0019731F00AC081E0D3
:1004800090E09A83898308C081E090E09A83898311
:1004900003C01A821982000089819A81009731F184
:1004A000019709F024C080E290E0FC0180818095F2
:1004B00080935A0180915A01817080935C018091F0
:1004C0005A0186958F7080935D0180915A018295C3
:1004D00086958770817080935E0180915A01829524
:1004E00086958695837080935F0101C000008981A5
:1004F0009A810F900F90DF91CF910895CF93DF9362
:1005000000D0CDB7DEB79A83898389819A81823002
:10051000910509F1833091052CF4009749F001977A
:1005200061F043C08330910521F1049781F13DC012
:1005300081E090E09A8389833BC080915C018823AD
:1005400029F082E090E09A83898332C081E090E0D4
:100550009A8389832DC080915C01882329F082E0F1
:1005600090E09A83898324C083E090E09A83898312
:100570001FC080915C01882329F084E090E09A8379
:10058000898316C083E090E09A83898311C08091AB
:100590005C01882329F084E090E09A83898308C075
:1005A00081E090E09A83898303C01A821982000057
:1005B00089819A818230910589F0833091052CF4EC
:1005C0000097B9F0019739F015C08330910551F0CB
:1005D000049761F00FC010925B010CC081E0809322
:1005E0005B0108C081E080935B0104C010925B0155
:1005F00001C0000089819A810F900F90DF91CF9107
:100600000895CF93DF9300D0CDB7DEB79A83898367
:1006100089819A818230910509F442C08330910525
:100620002CF4009779F0019791F072C08430910515
:1006300009F452C0843091050CF440C0059709F4C8
:1006400059C066C081E090E09A83898364C080913C
:100650005D01813029F482E090E09A8389835BC058
:1006600080915D01823029F483E090E09A83898350
:1006700052C080915D01843029F484E090E09A8337
:10068000898349C080915D01883029F485E090E03C
:100690009A83898340C081E090E09A8389833BC03C
:1006A00080915D01813029F081E090E09A83898317
:1006B00032C082E090E09A8389832DC080915D01F1
:1006C000823029F081E090E09A83898324C083E01E
:1006D00090E09A8389831FC080915D01843029F066
:1006E00081E090E09A83898316C084E090E09A8349
:1006F000898311C080915D01883029F081E090E00C
:100700009A83898308C085E090E09A83898303C037
:100710001A821982000089819A8182309105A1F0A4
:10072000833091052CF40097F9F0019751F01DC02A
:100730008430910589F08430910554F0059781F05B
:1007400014C01092610111C081E0809361010DC05D
:1007500082E08093610109C084E08093610105C05B
:1007600088E08093610101C0000089819A810F9027
:100770000F90DF91CF910895CF93DF9300D0CDB745
:10078000DEB79A83898389819A81092E000CAA0B8E
:10079000BB0B40E050E026E030E0841B950B2817AF
:1007A000390708F493C08A5B9F4FFC010C941E0725
:1007B0001A8219828EC080915F01833029F482E011
:1007C00090E09A83898385C081E090E09A83898351
:1007D00080C080915F01882F90E082709927892BDB
:1007E00049F080911B01853628F483E090E09A83DC
:1007F000898327C080915F01882F90E082709927BC
:10080000892B49F480911B01853628F482E090E021
:100810009A83898316C080915F01882F90E082704F
:100820009927892B49F080911B01853628F084E0B7
:1008300090E09A83898305C085E090E09A8389835C
:1008400048C047C080911C01853628F483E090E0C1
:100850009A8389833EC086E090E09A83898339C079
:1008600080915F01882F90E082709927892B29F071
:1008700084E090E09A8389832CC085E090E09A839D
:10088000898327C080915F01882F90E0827099272B
:10089000892B29F086E090E09A8389831AC085E04D
:1008A00090E09A83898315C080915F01882F90E042
:1008B00082709927892B29F086E090E09A838983BA
:1008C00008C081E090E09A83898303C01A8219826C
:1008D000000089819A81092E000CAA0BBB0B40E015
:1008E00050E026E030E0841B950B2817390720F1F3
:1008F000835B9F4FFC010C941E0710921B0110920A
:100900001C011DC080911B018F5F80931B0117C0CC
:1009100081E08093600180911C018F5F80931C01B6
:100920000EC081E0809360010AC081E08093600185
:1009300006C01092600103C0000001C00000898160
:100940009A810F900F90DF91CF910895CF93DF930D
:1009500000D0CDB7DEB79A83898389819A810097C9
:1009600019F0019731F00AC081E090E09A83898301
:1009700008C081E090E09A83898303C01A821982BB
:10098000000089819A810097B9F1019709F035C07B
:1009900080915B01882359F185E290E0209161010B
:1009A000222F30E0220F331F322F20915B01432F83
:1009B000422B20915E01222F30E0220F331F22951F
:1009C0003295307F3227207F3227422B20916001E1
:1009D000222F30E0002436952795079436952795E9
:1009E0000794322F202D242BFC01208306C085E2A2
:1009F00090E0FC01108201C0000089819A810F9073
:100A00000F90DF91CF910895CF93DF931F92CDB7D1
:100A1000DEB781E290E0FC01108282E290E02FEFED
:100A2000FC01208384E290E02FEFFC01208385E22B
:100A300090E0FC01108219828981282F30E0C901E1
:100A4000880F991F820F931F880F991F880F991F76
:100A5000825E9E4FFC01118210828981282F30E036
:100A6000C901880F991F820F931F880F991F880F44
:100A7000991F9C01205E3E4F8AE090E0A0E0B0E02C
:100A8000F90180839183A283B3838981682F70E009
:100A90008981282F30E0C901880F991F820F931F89
:100AA000880F991F880F991F805E9E4FFC0120813F
:100AB000318142815381CB01880F991F860F971F87
:100AC000880F991F880F991F8C5D9E4FFC01208312
:100AD0003183428353838981282F30E0C901880FF5
:100AE000991F820F931F880F991F880F991F885D88
:100AF0009E4F21E332E0FC013183208389818F5FA7
:100B000089838981282F30E0C901880F991F820FBE
:100B1000931F880F991F880F991F825E9E4FFC01BB
:100B2000118210828981282F30E0C901880F991F16
:100B3000820F931F880F991F880F991F9C01205EB9
:100B40003E4F82E390E0A0E0B0E0F9018083918322
:100B5000A283B3838981682F70E08981282F30E0D8
:100B6000C901880F991F820F931F880F991F880F43
:100B7000991F805E9E4FFC0120813181428153810B
:100B8000CB01880F991F860F971F880F991F880F19
:100B9000991F8C5D9E4FFC012083318342835383D8
:100BA0008981282F30E0C901880F991F820F931F78
:100BB000880F991F880F991F885D9E4F2EE732E09E
:100BC000FC013183208389818F5F89838981282F6C
:100BD00030E0C901880F991F820F931F880F991F5A
:100BE000880F991F825E9E4FFC01118210828981BD
:100BF000282F30E0C901880F991F820F931F880F9B
:100C0000991F880F991F9C01205E3E4F82E390E060
:100C1000A0E0B0E0F90180839183A283B38389814E
:100C2000682F70E08981282F30E0C901880F991F53
:100C3000820F931F880F991F880F991F805E9E4F08
:100C4000FC012081318142815381CB01880F991FA2
:100C5000860F971F880F991F880F991F8C5D9E4FD5
:100C6000FC0120833183428353838981282F30E024
:100C7000C901880F991F820F931F880F991F880F32
:100C8000991F885D9E4F21E033E0FC013183208372
:100C900089818F5F89838981282F30E0C901880F7E
:100CA000991F820F931F880F991F880F991F825ECB
:100CB0009E4FFC01118210828981282F30E0C901EA
:100CC000880F991F820F931F880F991F880F991FF4
:100CD0009C01205E3E4F8AE090E0A0E0B0E0F90188
:100CE00080839183A283B3838981682F70E0898197
:100CF000282F30E0C901880F991F820F931F880F9A
:100D0000991F880F991F805E9E4FFC0120813181C1
:100D100042815381CB01880F991F860F971F880F3F
:100D2000991F880F991F8C5D9E4FFC012083318392
:100D3000428353838981282F30E0C901880F991F8E
:100D4000820F931F880F991F880F991F885D9E4FF0
:100D50002CEB33E0FC013183208389818F5F898311
:100D60008981282F30E0C901880F991F820F931FB6
:100D7000880F991F880F991F825E9E4FFC01118278
:100D800010828981282F30E0C901880F991F820FB6
:100D9000931F880F991F880F991F9C01205E3E4F5B
:100DA0008AE090E0A0E0B0E0F90180839183A28323
:100DB000B3838981682F70E08981282F30E0C901D1
:100DC000880F991F820F931F880F991F880F991FF3
:100DD000805E9E4FFC012081318142815381CB0195
:100DE000880F991F860F971F880F991F880F991FCB
:100DF0008C5D9E4FFC012083318342835383898124
:100E0000282F30E0C901880F991F820F931F880F88
:100E1000991F880F991F885D9E4F26EA34E0FC01D8
:100E2000318320838AE090E0CC01A0E0B0E0BC01F7
:100E3000CD010E9403020E949E00FFCFEE0FFF1F14
:100E40000024001C0BBE0790F691E02D0994F89445
:020E5000FFCFD2
:100E52000000000200000000750000000000010018
:060E6200000005000A007B
:00000001FF
